:020000040000FA
:100000000C9462000C94A5050C947E050C948A0057
:100010000C948A000C948A000C948A000C948A0038
:100020000C948A000C948A000C948A000C948A0028
:100030000C948A000C948A000C948A000C948A0018
:100040000C9434050C948A000C9402050C94DC0486
:100050000C948A000C948A000C948A000C948A00F8
:100060000C948A000C948A000000000024002700F1
:100070002A0000000000250028002B0000000008D6
:10008000000201000003040700000000000000005F
:1000900000000000230026002900040404040404D6
:1000A0000404020202020202030303030303010227
:1000B00004081020408001020408102001020408F6
:1000C0001020110611241FBECFEFD8E0DEBFCDBF38
:1000D00011E0A0E0B1E0EEE8F3E102C005900D927E
:1000E000AE39B107D9F722E0AEE9B1E001C01D9207
:1000F000AC35B207E1F710E0C2E6D0E004C02197CA
:10010000FE010E94BF09C136D107C9F70E945B06F4
:100110000C94C5090C940000AF92BF92CF92DF926D
:10012000EF92FF920F931F93CF93DF936C017B01AC
:100130008B01040F151FEB015E01AE18BF08C0173D
:10014000D10759F06991D601ED91FC910190F081B0
:10015000E02DC6010995892B79F7C501DF91CF9173
:100160001F910F91FF90EF90DF90CF90BF90AF90D5
:100170000895FC01538D448D252F30E0842F90E0AD
:10018000821B930B541710F0CF9608950197089592
:10019000FC01918D828D981761F0A28DAE0FBF2F5B
:1001A000B11D5D968C91928D9F5F9F73928F90E0B1
:1001B00008958FEF9FEF0895FC01918D828D981720
:1001C00031F0828DE80FF11D858D90E008958FEF5D
:1001D0009FEF0895FC01918D228D892F90E0805C26
:1001E0009F4F821B91098F739927089587EA91E0A9
:1001F0000E94EA0021E0892B09F420E0822F089573
:1002000080E090E0892B29F00E94F60081110C9487
:1002100000000895FC01A48DA80FB92FB11DA35AA9
:10022000BF4F2C91848D90E001968F739927848F16
:10023000A689B7892C93A089B1898C918370806439
:100240008C93938D848D981306C00288F389E02DDA
:1002500080818F7D80830895EF92FF920F931F938B
:10026000CF93DF93EC0181E0888F9B8D8C8D981369
:100270001AC0E889F989808185FF15C09FB7F89475
:10028000EE89FF896083E889F989808183708064C1
:1002900080839FBF81E090E0DF91CF911F910F910C
:1002A000FF90EF900895F62E0B8D10E00F5F1F4F1B
:1002B0000F731127E02E8C8D8E110CC00FB607FC2A
:1002C000FACFE889F989808185FFF5CFCE010E94B8
:1002D0000A01F1CFEB8DEC0FFD2FF11DE35AFF4F1B
:1002E000F0829FB7F8940B8FEA89FB898081806246
:1002F000CFCFCF93DF93EC01888D8823B9F0AA8903
:10030000BB89E889F9898C9185FD03C0808186FDD0
:100310000DC00FB607FCF7CF8C9185FFF2CF80811F
:1003200085FFEDCFCE010E940A01E9CFDF91CF9189
:100330000895833081F028F4813099F08230A9F05B
:1003400008958730A9F08830C9F08430B1F48091E5
:1003500080008F7D03C0809180008F778093800024
:10036000089584B58F7784BD089584B58F7DFBCFC4
:100370008091B0008F778093B00008958091B00095
:100380008F7DF9CFCF93DF93282F30E0F901E45828
:10039000FF4F8491F901E255FF4FD491F901E656E0
:1003A000FF4FC491CC23A1F081110E949901EC2F41
:1003B000F0E0EE0FFF1FE057FF4FA591B491EC91D5
:1003C000ED2381E090E009F480E0DF91CF91089582
:1003D00080E090E0FACF1F93CF93DF93282F30E097
:1003E000F901E458FF4F8491F901E255FF4FD49190
:1003F000F901E656FF4FC491CC23A9F0162F8111C5
:100400000E949901EC2FF0E0EE0FFF1FEE58FF4F16
:10041000A591B4918FB7F894EC91111108C0D095C3
:10042000DE23DC938FBFDF91CF911F910895DE2BE8
:10043000F8CFCF93DF9390E0FC01E255FF4F24917A
:1004400086569F4FFC0184918823C9F090E0880F65
:10045000991FFC01E859FF4FA591B491FC01EE589A
:10046000FF4FC591D49161110DC09FB7F8948C9145
:10047000209582238C938881282328839FBFDF9136
:10048000CF910895623051F49FB7F8943C91822F38
:10049000809583238C93E8812E2BEFCF8FB7F89430
:1004A000EC912E2B2C938FBFEACF3FB7F89480911D
:1004B000A3019091A401A091A501B091A60126B538
:1004C000A89B05C02F3F19F00196A11DB11D3FBF8C
:1004D000BA2FA92F982F8827BC01CD01620F711D5B
:1004E000811D911D42E0660F771F881F991F4A9555
:1004F000D1F708958F929F92AF92BF92CF92DF92E1
:10050000EF92FF924B015C010E9455026B017C014E
:100510000E9455026C197D098E099F09683E73403F
:1005200081059105A8F321E0821A9108A108B1087C
:1005300088EEC80E83E0D81EE11CF11C81149104E2
:10054000A104B10429F7FF90EF90DF90CF90BF9006
:10055000AF909F908F9008950895089590E080E067
:1005600008950F931F93CF93DF93E4E0F1E0D0E081
:10057000C0E050E040E0DF01A40FB51FAC91A3350F
:1005800029F14F5F5F4F44305105A9F7219634960A
:10059000C430D10571F7D901AA0FBB1FAA0FBB1F29
:1005A000AC5FBE4FA00FB11F20E22C93FC01EE0FF9
:1005B000FF1FEE0FFF1FEC5FFE4FE60FF71F83E5F7
:1005C0008083DF91CF911F910F9108958A019E0141
:1005D000DDCF60E088E00E94EB0160E087E00E94F0
:1005E000EB0160E086E00E94EB0160E085E00C94A6
:1005F000EB01CF93C82F61E00E94190261E08C2FBC
:10060000CF910C94EB0161E088E00E94EB0160E087
:1006100087E00E94EB0189E00E94F90260E086E039
:100620000E94EB0161E085E00E94EB018AE00C94FE
:10063000F90260E088E00E94EB0161E087E00E943F
:10064000EB0189E00E94F90261E086E00E94EB0183
:1006500060E085E00E94EB018AE00C94F90261E021
:1006600088E00E94EB0160E087E00E94EB0189E0F6
:100670000E94F90261E086E00E94EB0160E085E003
:100680000E94EB018AE00C94F902CF93DF93EC0116
:1006900060E08E810E94EB0161E08E810E94EB019F
:1006A00060E08E810E94EB018BE891E00197F1F709
:1006B000DF91CF910895CF92DF92EF92FF920F9347
:1006C0001F93CF93DF936C017C0187E0E80EF11C50
:1006D000D0E0C0E0062F10E0B8010C2E02C07595E6
:1006E00067950A94E2F76170F70181917F010E949A
:1006F000EB012196C430D10579F7C601DF91CF9186
:100700001F910F91FF90EF90DF90CF900C944503D5
:10071000CF92DF92EF92FF920F931F93CF93DF93CD
:10072000EC01F62E642F8C810E94EB018D818F3FAE
:1007300019F060E00E94EB010F2D10E08F8584FF1F
:1007400025C06E0187E0C80ED11CF12CE12CB80148
:100750000E2C02C0759567950A94E2F76170F60158
:1007600081916F010E94EB01FFEFEF1AFF0A88E011
:10077000E816F10461F7CE01DF91CF911F910F913F
:10078000FF90EF90DF90CF900C944503B80184E088
:10079000759567958A95E1F7CE010E945B036F2DF1
:1007A000CE01DF91CF911F910F91FF90EF90DF90DD
:1007B000CF900C945B0340E0682F84E492E00C94AB
:1007C0008803CF93DF93823029F49091530298608D
:1007D00090935302809357021092580280E48093C2
:1007E000590280E180935A0280E580935B0261E0C8
:1007F000809148020E941902809149028F3F19F0AE
:1008000061E00E94190261E080914A020E9419028F
:10081000C4E4D2E09E01245432408091530284FD0E
:100820000BC084E090E021962817390744F461E07A
:100830008E810E941902EECF88E090E0F4CF8BE326
:100840009DE00197F1F760E0809148020E94EB0182
:1008500060E080914A020E94EB01809149028F3F43
:1008600019F060E00E94EB018091530284FD39C0D1
:1008700063E084E492E00E945B03CBE4D6E4CE0123
:100880000197F1F763E084E492E00E945B03219713
:10089000F1F763E084E492E00E945B0383E592E079
:1008A0000197F1F762E084E492E00E945B0380919B
:1008B000530280620E94DB0384E0809354028CE048
:1008C0000E94DB0381E00E94DB038BE39FE1019741
:1008D000F1F782E08093550286E0DF91CF910C948E
:1008E000DB0380620E94DB038BE496E40197F1F75F
:1008F0008091530280620E94DB0383E592E00197BE
:10090000F1F78091530280620E94DB03D0CFE09127
:100910005702E23040F4E150F0E0EC5BFD4F848997
:1009200080680C94DB03E1E0F7CF41E00E9488038C
:1009300081E090E00895FB0101900020E9F73197F4
:10094000AF01461B570BDC01ED91FC910280F38156
:10095000E02D0994CF93DF93BC0187EA91E00E94D8
:100960009B04EC0163E371E087EA91E00E949B0441
:100970008C0F9D1FDF91CF91089586E391E00E9437
:10098000AA0480911401813379F482E380931401E5
:100990006091140187EA91E00E942C0163E371E009
:1009A00087EA91E00C949B04823311F483E3EECF49
:1009B000833371F781E3EACF1F920F920FB60F9244
:1009C00011242F933F934F935F936F937F938F9354
:1009D0009F93AF93BF93EF93FF9387EA91E00E94B9
:1009E0000A01FF91EF91BF91AF919F918F917F91FC
:1009F0006F915F914F913F912F910F900FBE0F908C
:100A00001F9018951F920F920FB60F9211242F93DB
:100A10008F939F93EF93FF93E091B701F091B8010B
:100A20008081E091BD01F091BE0182FD1BC09081EB
:100A30008091C0018F5F8F732091C101821741F0B7
:100A4000E091C001F0E0E955FE4F958F8093C00121
:100A5000FF91EF919F918F912F910F900FBE0F906B
:100A60001F9018958081F4CF1F920F920FB60F92AE
:100A700011242F933F938F939F93AF93BF938091B4
:100A80009F019091A001A091A101B091A20130918C
:100A90009E0123E0230F2D3758F50196A11DB11DAE
:100AA00020939E0180939F019093A001A093A101A8
:100AB000B093A2018091A3019091A401A091A501FE
:100AC000B091A6010196A11DB11D8093A301909341
:100AD000A401A093A501B093A601BF91AF919F91EE
:100AE0008F913F912F910F900FBE0F901F901895EF
:100AF00026E8230F0296A11DB11DD2CF1F920F929F
:100B00000FB60F9211242F933F934F935F936F93E0
:100B10007F938F939F93AF93BF93EF93FF93E09156
:100B20000201F09103010995FF91EF91BF91AF91FF
:100B30009F918F917F916F915F914F913F912F91F5
:100B40000F900FBE0F901F9018951F920F920FB627
:100B50000F9211242F933F934F935F936F937F9343
:100B60008F939F93AF93BF93EF93FF93E091000117
:100B7000F09101010995FF91EF91BF91AF919F9184
:100B80008F917F916F915F914F913F912F910F9036
:100B90000FBE0F901F901895CF92DF92EF92FF92A9
:100BA0000F931F93E82FF92F05C001501109210958
:100BB000310961F1908196239417B9F305C0015072
:100BC00011092109310911F1908196239413F7CF6E
:100BD000C12CD12CE12CF12C0AC08FEFC81AD80AF5
:100BE000E80AF80A0C151D052E053F0579F08081ED
:100BF0008623841791F36C2D7D2D8E2D9F2D1F91B3
:100C00000F91FF90EF90DF90CF90089560E070E03B
:100C100080E090E01F910F91FF90EF90DF90CF90D8
:100C20000895E7EAF1E01382128288EE93E0A0E0F3
:100C3000B0E084839583A683B78389E191E09183B3
:100C4000808385EC90E09587848784EC90E097879B
:100C5000868780EC90E0918B808B81EC90E0938B89
:100C6000828B82EC90E0958B848B86EC90E0978B66
:100C7000868B118E128E138E148EE4E4F2E01382B2
:100C800012828BE291E0918380838CE084838FEFEA
:100C900085838BE0868380E1878381E1808782E1A1
:100CA000818783E1828713861486158616861786C8
:100CB00081E00C94E103789484B5826084BD84B5AE
:100CC000816084BD85B5826085BD85B5816085BD47
:100CD00080916E00816080936E00109281008091FF
:100CE0008100826080938100809181008160809387
:100CF0008100809180008160809380008091B100AC
:100D000084608093B1008091B00081608093B000D6
:100D100080917A00846080937A0080917A0082606A
:100D200080937A0080917A00816080937A0080912C
:100D30007A00806880937A001092C100E091B70138
:100D4000F091B80182E08083E091B301F091B401A9
:100D50001082E091B501F091B6018FEC8083109282
:100D6000BF01E091BB01F091BC0186E08083E0917E
:100D7000B901F091BA01808180618083E091B9016D
:100D8000F091BA01808188608083E091B901F0918F
:100D9000BA01808180688083E091B901F091BA0145
:100DA00080818F7D808361E082E00E94190260E093
:100DB00084E00E94190261E089E00E94190261E06A
:100DC00088E00E94190261E087E00E94190261E058
:100DD0008AE00E94190261E086E00E94190261E047
:100DE00085E00E94190262E083E00E9419028DEB07
:100DF00094E0909303018093020180916900837FC6
:100E0000886080936900E99A82E00E94E1036AE3C6
:100E100071E084E492E00E949B04D0E0C0E094E0A2
:100E2000E92E91E0F92E170182E0280E311CFE0117
:100E300031962F012AE0622E21E0722E219732E0B6
:100E4000C32E31E0D32E5701F3E0AF0EB11C4701A2
:100E50008FEF881A980A80911401813309F04DC0F0
:100E60000E94870462E471E084E492E00E949B04A3
:100E700087EA91E00E94EA00892B79F187EA91E004
:100E80000E94C800182F85E591E00E94AA0416343C
:100E900009F497C02CF4123451F00E94E9021DC0ED
:100EA0001C3441F11235C9F70E94030316C060E0FB
:100EB00088E00E94EB0161E087E00E94EB0189E09D
:100EC0000E94F90260E086E00E94EB0161E085E0AB
:100ED0000E94EB018AE00E94F90280E090E0892BF9
:100EE00009F4B9CF0E94F600882309F4ACCF0E9420
:100EF0000000A9CF0E941903F0CF823309F064C02B
:100F00000E9487046BE571E084E492E00E949B04F8
:100F100060E082E00E94EB0183E090E00197F1F74E
:100F200061E082E00E94EB0183E290E00197F1F73B
:100F300060E082E00E94EB01E2EBF0E06491EEE918
:100F4000F0E0E491F0E0EE0FFF1FE057FF4F8591D6
:100F5000949100E412E42FE030E0462F0E94CC058B
:100F6000611571058105910529F06F5F7F4F8F4FE6
:100F70009F4F9F700E94A20826E933E44BE05DE397
:100F80000E94010920E030E040E05FE30E94010997
:100F900020E030E040EA51E40E949B0887FF11C046
:100FA0000E94E90264EF71E080E090E00E947A0222
:100FB0000E94030368EE73E080E090E00E947A02F2
:100FC0008CCF0E942F0389CF8333C9F50E948704F9
:100FD0006EE671E084E492E00E949B048FE00E9440
:100FE000C201892B39F48EE00E94C201892B11F4D1
:100FF0000E942F038FE00E94C201019739F48EE016
:101000000E94C201892B11F40E9403038FE00E9409
:10101000C201892B39F48EE00E94C201019711F4BC
:101020000E9419038FE00E94C201019709F055CF79
:101030008EE00E94C201019709F04FCF2ECF0E948F
:10104000870465E871E084E492E00E949B0488E9EB
:1010500091E00E94AA04F1018081873409F41DCF38
:10106000F5018081803211F0873469F40E942F03EA
:1010700068EE73E080E090E00E947A0263E070E046
:1010800090E080E019C0F3018081803211F0873454
:10109000B1F40E94030368EE73E080E090E00E94E8
:1010A0007A020E942F0368EE73E080E090E00E94D5
:1010B0007A0262E070E0C2010E94B1020ECFF40138
:1010C0008081803211F08734D9F40E94030368EEE6
:1010D00073E080E090E00E947A020E94030368EED1
:1010E00073E080E090E00E947A020E942F0368EE95
:1010F00073E080E090E00E947A0261E070E0C0CF8F
:10110000F6018081803219F0873409F0E6CE0E9422
:10111000190368EE73E080E090E00E947A020E947A
:101120002F0368EE73E080E090E00E947A0262E0B4
:1011300070E0CE01C1CF0E94DD0808F481E008957F
:10114000E89409C097FB3EF4909580957095619561
:101150007F4F8F4F9F4F9923A9F0F92F96E9BB2717
:101160009395F695879577956795B795F111F8CF93
:10117000FAF4BB0F11F460FF1BC06F5F7F4F8F4FFE
:101180009F4F16C0882311F096E911C0772321F0F4
:101190009EE8872F762F05C0662371F096E8862F8C
:1011A00070E060E02AF09A95660F771F881FDAF7E3
:1011B000880F9695879597F90895990F0008550F10
:1011C000AA0BE0E8FEEF16161706E807F907C0F0CD
:1011D00012161306E407F50798F0621B730B840BD5
:1011E000950B39F40A2661F0232B242B252B21F4AF
:1011F00008950A2609F4A140A6958FEF811D811D4F
:1012000008950E9414090C9485090E94770938F00A
:101210000E947E0920F0952311F00C946E090C9425
:10122000740911240C94B9090E94960970F3959FD2
:10123000C1F3950F50E0551F629FF001729FBB27CD
:10124000F00DB11D639FAA27F00DB11DAA1F649F69
:101250006627B00DA11D661F829F2227B00DA11D1C
:10126000621F739FB00DA11D621F839FA00D611DA2
:10127000221F749F3327A00D611D231F849F600DC3
:10128000211D822F762F6A2F11249F5750409AF0EC
:10129000F1F088234AF0EE0FFF1FBB1F661F771F78
:1012A000881F91505040A9F79E3F510580F00C9443
:1012B0006E090C94B9095F3FE4F3983ED4F3869528
:1012C00077956795B795F795E7959F5FC1F7FE2BE3
:1012D000880F911D9695879597F9089597F99F67BF
:1012E00080E870E060E008959FEF80EC08950024AE
:1012F0000A941616170618060906089500240A947B
:1013000012161306140605060895092E0394000C00
:1013100011F4882352F0BB0F40F4BF2B11F460FF8F
:1013200004C06F5F7F4F8F4F9F4F089557FD9058B8
:10133000440F551F59F05F3F71F04795880F97FB99
:10134000991F61F09F3F79F0879508951216130653
:101350001406551FF2CF4695F1DF08C01616170682
:101360001806991FF1CF86957105610508940895B7
:10137000E894BB2766277727CB0197F90895EE0FEE
:10138000FF1F0590F491E02D0994F894FFCFAC0273
:10139000AC02532323232020232023202023232394
:1013A000472331000000002C018C00B9007901EACC
:1013B00000C800DC000000000095048C00AE02AD07
:1013C000020D0A004953520057656C636F6D65004A
:1013D0004D6F64653A20426C7565746F6F74682058
:1013E0002020000A446F6E65004D6F64653A204FFF
:1013F00062737461636C6520202020004D6F64650A
:101400003A204C696E65466F6C6C6F776572202070
:101410002020004D6F64653A204D617A65202020C0
:0C1420002020202020004D617A65000093
:107E0000112484B714BE81FFF0D085E080938100F7
:107E100082E08093C00088E18093C10086E0809377
:107E2000C20080E18093C4008EE0C9D0259A86E02C
:107E300020E33CEF91E0309385002093840096BBD3
:107E4000B09BFECF1D9AA8958150A9F7CC24DD24C4
:107E500088248394B5E0AB2EA1E19A2EF3E0BF2EE7
:107E6000A2D0813461F49FD0082FAFD0023811F036
:107E7000013811F484E001C083E08DD089C08234E0
:107E800011F484E103C0853419F485E0A6D080C0E4
:107E9000853579F488D0E82EFF2485D0082F10E0AE
:107EA000102F00270E291F29000F111F8ED06801E7
:107EB0006FC0863521F484E090D080E0DECF843638
:107EC00009F040C070D06FD0082F6DD080E0C81688
:107ED00080E7D80618F4F601B7BEE895C0E0D1E017
:107EE00062D089930C17E1F7F0E0CF16F0E7DF06D8
:107EF00018F0F601B7BEE89568D007B600FCFDCFD4
:107F0000A601A0E0B1E02C9130E011968C91119780
:107F100090E0982F8827822B932B1296FA010C0160
:107F200087BEE89511244E5F5F4FF1E0A038BF0790
:107F300051F7F601A7BEE89507B600FCFDCF97BE46
:107F4000E89526C08437B1F42ED02DD0F82E2BD052
:107F50003CD0F601EF2C8F010F5F1F4F84911BD097
:107F6000EA94F801C1F70894C11CD11CFA94CF0C13
:107F7000D11C0EC0853739F428D08EE10CD085E9AC
:107F80000AD08FE07ACF813511F488E018D01DD067
:107F900080E101D065CF982F8091C00085FFFCCF94
:107FA0009093C60008958091C00087FFFCCF809118
:107FB000C00084FD01C0A8958091C6000895E0E648
:107FC000F0E098E1908380830895EDDF803219F02E
:107FD00088E0F5DFFFCF84E1DECF1F93182FE3DFCA
:107FE0001150E9F7F2DF1F91089580E0E8DFEE27F6
:047FF000FF270994CA
:027FFE00040479
:00000001FF
